{
  "contractName": "CertificateVerification",
  "abi": [
    {
      "inputs": [],
      "stateMutability": "nonpayable",
      "type": "constructor"
    },
    {
      "anonymous": false,
      "inputs": [
        {
          "indexed": true,
          "internalType": "bytes32",
          "name": "certHash",
          "type": "bytes32"
        },
        {
          "indexed": true,
          "internalType": "address",
          "name": "issuer",
          "type": "address"
        },
        {
          "indexed": false,
          "internalType": "string",
          "name": "ipfsCID",
          "type": "string"
        }
      ],
      "name": "CertificateIssued",
      "type": "event"
    },
    {
      "anonymous": false,
      "inputs": [
        {
          "indexed": true,
          "internalType": "bytes32",
          "name": "certHash",
          "type": "bytes32"
        }
      ],
      "name": "CertificateRevoked",
      "type": "event"
    },
    {
      "inputs": [],
      "name": "totalIssued",
      "outputs": [
        {
          "internalType": "uint256",
          "name": "",
          "type": "uint256"
        }
      ],
      "stateMutability": "view",
      "type": "function",
      "constant": true
    },
    {
      "inputs": [],
      "name": "totalRevoked",
      "outputs": [
        {
          "internalType": "uint256",
          "name": "",
          "type": "uint256"
        }
      ],
      "stateMutability": "view",
      "type": "function",
      "constant": true
    },
    {
      "inputs": [
        {
          "internalType": "bytes32",
          "name": "certHash",
          "type": "bytes32"
        },
        {
          "internalType": "string",
          "name": "ipfsCID",
          "type": "string"
        }
      ],
      "name": "issueCertificate",
      "outputs": [],
      "stateMutability": "nonpayable",
      "type": "function"
    },
    {
      "inputs": [
        {
          "internalType": "bytes32",
          "name": "certHash",
          "type": "bytes32"
        }
      ],
      "name": "verifyCertificate",
      "outputs": [
        {
          "internalType": "bool",
          "name": "validity",
          "type": "bool"
        },
        {
          "internalType": "address",
          "name": "certIssuer",
          "type": "address"
        },
        {
          "internalType": "uint256",
          "name": "issueTimestamp",
          "type": "uint256"
        },
        {
          "internalType": "string",
          "name": "storageCID",
          "type": "string"
        }
      ],
      "stateMutability": "view",
      "type": "function",
      "constant": true
    },
    {
      "inputs": [
        {
          "internalType": "bytes32",
          "name": "certHash",
          "type": "bytes32"
        }
      ],
      "name": "revokeCertificate",
      "outputs": [],
      "stateMutability": "nonpayable",
      "type": "function"
    },
    {
      "inputs": [
        {
          "internalType": "bytes32",
          "name": "certHash",
          "type": "bytes32"
        }
      ],
      "name": "checkValidity",
      "outputs": [
        {
          "internalType": "bool",
          "name": "",
          "type": "bool"
        }
      ],
      "stateMutability": "view",
      "type": "function",
      "constant": true
    },
    {
      "inputs": [
        {
          "internalType": "bytes32",
          "name": "certHash",
          "type": "bytes32"
        }
      ],
      "name": "getIssuerAddress",
      "outputs": [
        {
          "internalType": "address",
          "name": "",
          "type": "address"
        }
      ],
      "stateMutability": "view",
      "type": "function",
      "constant": true
    },
    {
      "inputs": [
        {
          "internalType": "bytes32",
          "name": "certHash",
          "type": "bytes32"
        }
      ],
      "name": "getStorageCID",
      "outputs": [
        {
          "internalType": "string",
          "name": "",
          "type": "string"
        }
      ],
      "stateMutability": "view",
      "type": "function",
      "constant": true
    },
    {
      "inputs": [
        {
          "internalType": "bytes32",
          "name": "certHash",
          "type": "bytes32"
        }
      ],
      "name": "getIssueTimestamp",
      "outputs": [
        {
          "internalType": "uint256",
          "name": "",
          "type": "uint256"
        }
      ],
      "stateMutability": "view",
      "type": "function",
      "constant": true
    },
    {
      "inputs": [],
      "name": "getStatistics",
      "outputs": [
        {
          "internalType": "uint256",
          "name": "issued",
          "type": "uint256"
        },
        {
          "internalType": "uint256",
          "name": "revoked",
          "type": "uint256"
        },
        {
          "internalType": "uint256",
          "name": "active",
          "type": "uint256"
        }
      ],
      "stateMutability": "view",
      "type": "function",
      "constant": true
    },
    {
      "inputs": [
        {
          "internalType": "bytes32",
          "name": "certHash",
          "type": "bytes32"
        }
      ],
      "name": "getCertificateDetails",
      "outputs": [
        {
          "internalType": "bool",
          "name": "validity",
          "type": "bool"
        },
        {
          "internalType": "address",
          "name": "certIssuer",
          "type": "address"
        },
        {
          "internalType": "uint256",
          "name": "issueTimestamp",
          "type": "uint256"
        },
        {
          "internalType": "string",
          "name": "storageCID",
          "type": "string"
        },
        {
          "internalType": "bool",
          "name": "wasIssued",
          "type": "bool"
        }
      ],
      "stateMutability": "view",
      "type": "function",
      "constant": true
    },
    {
      "inputs": [
        {
          "internalType": "bytes32",
          "name": "certHash",
          "type": "bytes32"
        }
      ],
      "name": "wasEverIssued",
      "outputs": [
        {
          "internalType": "bool",
          "name": "",
          "type": "bool"
        }
      ],
      "stateMutability": "view",
      "type": "function",
      "constant": true
    }
  ],
  "bytecode": "0x608060405234801561001057600080fd5b5060006001819055600255610cb58061002a6000396000f3fe608060405234801561001057600080fd5b50600436106100b45760003560e01c8063ac15f0ac11610071578063ac15f0ac146101ce578063baf75ec7146101f2578063c6cbc52a14610207578063e62ce7ac1461021a578063e7ea116314610223578063f5be31931461025357600080fd5b8063372d6b27146100b95780634afdd43c146100e15780637d2d416614610114578063850c176814610145578063a4424e8214610168578063ac116a78146101ae575b600080fd5b6100c161025c565b604080519384526020840192909252908201526060015b60405180910390f35b6101046100ef3660046108f1565b60009081526020819052604090205460ff1690565b60405190151581526020016100d8565b6101376101223660046108f1565b60009081526020819052604090206001015490565b6040519081526020016100d8565b6101586101533660046108f1565b610282565b6040516100d89493929190610950565b6101966101763660046108f1565b60009081526020819052604090205461010090046001600160a01b031690565b6040516001600160a01b0390911681526020016100d8565b6101c16101bc3660046108f1565b6103ad565b6040516100d89190610989565b6101e16101dc3660046108f1565b610452565b6040516100d89594939291906109a3565b6102056102003660046109fc565b610568565b005b6102056102153660046108f1565b610786565b61013760025481565b6101046102313660046108f1565b60009081526020819052604090205461010090046001600160a01b0316151590565b61013760015481565b60008060006001546002546002546001546102779190610acd565b925092509250909192565b60008080606084806102af5760405162461bcd60e51b81526004016102a690610ae6565b60405180910390fd5b6000868152602081815260408083208151608081018352815460ff81161515825261010090046001600160a01b03169381019390935260018101549183019190915260028101805460608401919061030690610b1d565b80601f016020809104026020016040519081016040528092919081815260200182805461033290610b1d565b801561037f5780601f106103545761010080835404028352916020019161037f565b820191906000526020600020905b81548152906001019060200180831161036257829003601f168201915b505050919092525050815160208301516040840151606090940151919b909a50929850965090945050505050565b60008181526020819052604090206002018054606091906103cd90610b1d565b80601f01602080910402602001604051908101604052809291908181526020018280546103f990610b1d565b80156104465780601f1061041b57610100808354040283529160200191610446565b820191906000526020600020905b81548152906001019060200180831161042957829003601f168201915b50505050509050919050565b6000818152602081815260408083208151608081018352815460ff81161515825261010090046001600160a01b03169381019390935260018101549183019190915260028101805484938493606093859384939291868401916104b490610b1d565b80601f01602080910402602001604051908101604052809291908181526020018280546104e090610b1d565b801561052d5780601f106105025761010080835404028352916020019161052d565b820191906000526020600020905b81548152906001019060200180831161051057829003601f168201915b50505091909252505050602081015181516040830151606090930151909a9199509197509095506001600160a01b0388161515945092505050565b81806105865760405162461bcd60e51b81526004016102a690610ae6565b8160008151116105cb5760405162461bcd60e51b815260206004820152601060248201526f125b9d985b1a590812541194c810d25160821b60448201526064016102a6565b60008481526020819052604090205460ff161561062a5760405162461bcd60e51b815260206004820152601a60248201527f436572746966696361746520616c72656164792069737375656400000000000060448201526064016102a6565b60008481526020819052604090205461010090046001600160a01b03161561069e5760405162461bcd60e51b815260206004820152602160248201527f4365727469666963617465207761732070726576696f75736c792069737375656044820152601960fa1b60648201526084016102a6565b604080516080810182526001808252336020808401918252428486019081526060850189815260008b815292839052959091208451815493516001600160a81b0319909416901515610100600160a81b031916176101006001600160a01b03909416939093029290921782555191810191909155915190919060028201906107269082610ba6565b5050600180549150600061073983610c66565b9190505550336001600160a01b0316847fe9d1f149bd22b0e56019e79155fb9c09094cc06be78083f19551fea6e46ff6c4856040516107789190610989565b60405180910390a350505050565b80806107a45760405162461bcd60e51b81526004016102a690610ae6565b600082815260208190526040902054829060ff1661081b5760405162461bcd60e51b815260206004820152602e60248201527f436572746966696361746520646f6573206e6f74206578697374206f7220686160448201526d1cc81899595b881c995d9bdad95960921b60648201526084016102a6565b600083815260208190526040902054839061010090046001600160a01b031633146108975760405162461bcd60e51b815260206004820152602660248201527f4e6f7420617574686f72697a65643a206f6e6c79206973737565722063616e206044820152657265766f6b6560d01b60648201526084016102a6565b6000848152602081905260408120805460ff1916905560028054916108bb83610c66565b909155505060405184907f44d80a438cb4fa3b5aedbe551ce3d9382e37f446917b783e1dee70a03b4180e390600090a250505050565b60006020828403121561090357600080fd5b5035919050565b6000815180845260005b8181101561093057602081850181015186830182015201610914565b506000602082860101526020601f19601f83011685010191505092915050565b841515815260018060a01b038416602082015282604082015260806060820152600061097f608083018461090a565b9695505050505050565b60208152600061099c602083018461090a565b9392505050565b851515815260018060a01b038516602082015283604082015260a0606082015260006109d260a083018561090a565b905082151560808301529695505050505050565b634e487b7160e01b600052604160045260246000fd5b60008060408385031215610a0f57600080fd5b82359150602083013567ffffffffffffffff80821115610a2e57600080fd5b818501915085601f830112610a4257600080fd5b813581811115610a5457610a546109e6565b604051601f8201601f19908116603f01168101908382118183101715610a7c57610a7c6109e6565b81604052828152886020848701011115610a9557600080fd5b8260208601602083013760006020848301015280955050505050509250929050565b634e487b7160e01b600052601160045260246000fd5b81810381811115610ae057610ae0610ab7565b92915050565b60208082526018908201527f496e76616c696420636572746966696361746520686173680000000000000000604082015260600190565b600181811c90821680610b3157607f821691505b602082108103610b5157634e487b7160e01b600052602260045260246000fd5b50919050565b601f821115610ba157600081815260208120601f850160051c81016020861015610b7e5750805b601f850160051c820191505b81811015610b9d57828155600101610b8a565b5050505b505050565b815167ffffffffffffffff811115610bc057610bc06109e6565b610bd481610bce8454610b1d565b84610b57565b602080601f831160018114610c095760008415610bf15750858301515b600019600386901b1c1916600185901b178555610b9d565b600085815260208120601f198616915b82811015610c3857888601518255948401946001909101908401610c19565b5085821015610c565787850151600019600388901b60f8161c191681555b5050505050600190811b01905550565b600060018201610c7857610c78610ab7565b506001019056fea264697066735822122039077101e748e315a93e7243e5a26b0b404130609bd3813604bdf9843a17c45764736f6c63430008110033",
  "immutableReferences": {},
  "source": "// SPDX-License-Identifier: MIT\npragma solidity ^0.8.17;\n\n/**\n * @title CertificateVerification\n * @dev Store and verify certificates on blockchain with IPFS integration\n * @notice Fixed: No naming conflicts between functions and identifiers\n */\ncontract CertificateVerification {\n\n    // ---------------------\n    // Certificate Structure\n    // ---------------------\n    struct Certificate {\n        bool isValid;\n        address issuer;\n        uint256 issuedAt;\n        string ipfsCID;\n    }\n\n    // Mapping: certificate hash => Certificate details\n    mapping(bytes32 => Certificate) private certificates;\n\n    // Statistics\n    uint256 public totalIssued;\n    uint256 public totalRevoked;\n\n    // ---------------------\n    // Events\n    // ---------------------\n    \n    event CertificateIssued(\n        bytes32 indexed certHash, \n        address indexed issuer, \n        string ipfsCID\n    );\n\n    event CertificateRevoked(\n        bytes32 indexed certHash\n    );\n\n    // ---------------------\n    // Modifiers\n    // ---------------------\n    \n    modifier validHash(bytes32 certHash) {\n        require(certHash != bytes32(0), \"Invalid certificate hash\");\n        _;\n    }\n\n    modifier validCID(string memory ipfsCID) {\n        require(bytes(ipfsCID).length > 0, \"Invalid IPFS CID\");\n        _;\n    }\n\n    modifier certExists(bytes32 certHash) {\n        require(certificates[certHash].isValid, \"Certificate does not exist or has been revoked\");\n        _;\n    }\n\n    modifier onlyIssuer(bytes32 certHash) {\n        require(\n            certificates[certHash].issuer == msg.sender,\n            \"Not authorized: only issuer can revoke\"\n        );\n        _;\n    }\n\n    // ---------------------\n    // Constructor\n    // ---------------------\n    \n    constructor() {\n        totalIssued = 0;\n        totalRevoked = 0;\n    }\n\n    // ---------------------\n    // Main Functions\n    // ---------------------\n\n    /**\n     * @dev Issue a new certificate\n     * @param certHash SHA-256 hash of the certificate PDF\n     * @param ipfsCID IPFS Content Identifier where the certificate is stored\n     */\n    function issueCertificate(bytes32 certHash, string memory ipfsCID) \n        public \n        validHash(certHash)\n        validCID(ipfsCID)\n    {\n        require(!certificates[certHash].isValid, \"Certificate already issued\");\n        require(certificates[certHash].issuer == address(0), \"Certificate was previously issued\");\n\n        certificates[certHash] = Certificate({\n            isValid: true,\n            issuer: msg.sender,\n            issuedAt: block.timestamp,\n            ipfsCID: ipfsCID\n        });\n\n        totalIssued++;\n\n        emit CertificateIssued(certHash, msg.sender, ipfsCID);\n    }\n\n    /**\n     * @dev Verify a certificate's validity and get its details\n     * @param certHash SHA-256 hash of the certificate to verify\n     * @return validity Whether the certificate is valid\n     * @return certIssuer Address of the certificate issuer\n     * @return issueTimestamp Timestamp when the certificate was issued\n     * @return storageCID IPFS CID of the certificate file\n     */\n    function verifyCertificate(bytes32 certHash)\n        public\n        view\n        validHash(certHash)\n        returns (\n            bool validity,\n            address certIssuer,\n            uint256 issueTimestamp,\n            string memory storageCID\n        )\n    {\n        Certificate memory cert = certificates[certHash];\n        return (cert.isValid, cert.issuer, cert.issuedAt, cert.ipfsCID);\n    }\n\n    /**\n     * @dev Revoke a certificate (only by original issuer)\n     * @param certHash SHA-256 hash of the certificate to revoke\n     */\n    function revokeCertificate(bytes32 certHash) \n        public \n        validHash(certHash)\n        certExists(certHash)\n        onlyIssuer(certHash)\n    {\n        certificates[certHash].isValid = false;\n        totalRevoked++;\n\n        emit CertificateRevoked(certHash);\n    }\n\n    // ---------------------\n    // Query Functions\n    // ---------------------\n\n    /**\n     * @dev Check if a certificate exists and is valid\n     * @param certHash SHA-256 hash of the certificate\n     * @return bool True if certificate is valid\n     */\n    function checkValidity(bytes32 certHash) \n        public \n        view \n        returns (bool) \n    {\n        return certificates[certHash].isValid;\n    }\n\n    /**\n     * @dev Get the issuer of a certificate\n     * @param certHash SHA-256 hash of the certificate\n     * @return address The issuer's address\n     */\n    function getIssuerAddress(bytes32 certHash)\n        public\n        view\n        returns (address)\n    {\n        return certificates[certHash].issuer;\n    }\n\n    /**\n     * @dev Get the IPFS CID of a certificate\n     * @param certHash SHA-256 hash of the certificate\n     * @return string The IPFS CID\n     */\n    function getStorageCID(bytes32 certHash) \n        public \n        view \n        returns (string memory) \n    {\n        return certificates[certHash].ipfsCID;\n    }\n\n    /**\n     * @dev Get the issuance timestamp of a certificate\n     * @param certHash SHA-256 hash of the certificate\n     * @return uint256 The timestamp\n     */\n    function getIssueTimestamp(bytes32 certHash) \n        public \n        view \n        returns (uint256) \n    {\n        return certificates[certHash].issuedAt;\n    }\n\n    /**\n     * @dev Get statistics about the contract\n     * @return issued Total certificates issued\n     * @return revoked Total certificates revoked\n     * @return active Total active certificates\n     */\n    function getStatistics()\n        public\n        view\n        returns (\n            uint256 issued,\n            uint256 revoked,\n            uint256 active\n        )\n    {\n        return (totalIssued, totalRevoked, totalIssued - totalRevoked);\n    }\n\n    /**\n     * @dev Get complete certificate information\n     * @param certHash SHA-256 hash of the certificate\n     * @return validity Whether the certificate is currently valid\n     * @return certIssuer The address that issued the certificate\n     * @return issueTimestamp The timestamp when issued\n     * @return storageCID The IPFS CID\n     * @return wasIssued Whether the certificate was ever issued\n     */\n    function getCertificateDetails(bytes32 certHash)\n        public\n        view\n        returns (\n            bool validity,\n            address certIssuer,\n            uint256 issueTimestamp,\n            string memory storageCID,\n            bool wasIssued\n        )\n    {\n        Certificate memory cert = certificates[certHash];\n        bool everIssued = cert.issuer != address(0);\n        return (cert.isValid, cert.issuer, cert.issuedAt, cert.ipfsCID, everIssued);\n    }\n\n    /**\n     * @dev Check if a certificate was ever issued (even if now revoked)\n     * @param certHash SHA-256 hash of the certificate\n     * @return bool True if certificate was ever issued\n     */\n    function wasEverIssued(bytes32 certHash)\n        public\n        view\n        returns (bool)\n    {\n        return certificates[certHash].issuer != address(0);\n    }\n}",
  "sourcePath": "/Users/manusharansah/CipherSquad/contracts/CertificateVerification.sol",
  "compiler": {
    "name": "solc",
    "version": "0.8.17+commit.8df45f5f.Emscripten.clang"
  },
  "schemaVersion": "3.4.16",
  "updatedAt": "2025-12-25T16:39:31.802Z",
  "networkType": "ethereum",
  "devdoc": {
    "details": "Store and verify certificates on blockchain with IPFS integration",
    "kind": "dev",
    "methods": {
      "checkValidity(bytes32)": {
        "details": "Check if a certificate exists and is valid",
        "params": {
          "certHash": "SHA-256 hash of the certificate"
        },
        "returns": {
          "_0": "bool True if certificate is valid"
        }
      },
      "getCertificateDetails(bytes32)": {
        "details": "Get complete certificate information",
        "params": {
          "certHash": "SHA-256 hash of the certificate"
        },
        "returns": {
          "certIssuer": "The address that issued the certificate",
          "issueTimestamp": "The timestamp when issued",
          "storageCID": "The IPFS CID",
          "validity": "Whether the certificate is currently valid",
          "wasIssued": "Whether the certificate was ever issued"
        }
      },
      "getIssueTimestamp(bytes32)": {
        "details": "Get the issuance timestamp of a certificate",
        "params": {
          "certHash": "SHA-256 hash of the certificate"
        },
        "returns": {
          "_0": "uint256 The timestamp"
        }
      },
      "getIssuerAddress(bytes32)": {
        "details": "Get the issuer of a certificate",
        "params": {
          "certHash": "SHA-256 hash of the certificate"
        },
        "returns": {
          "_0": "address The issuer's address"
        }
      },
      "getStatistics()": {
        "details": "Get statistics about the contract",
        "returns": {
          "active": "Total active certificates",
          "issued": "Total certificates issued",
          "revoked": "Total certificates revoked"
        }
      },
      "getStorageCID(bytes32)": {
        "details": "Get the IPFS CID of a certificate",
        "params": {
          "certHash": "SHA-256 hash of the certificate"
        },
        "returns": {
          "_0": "string The IPFS CID"
        }
      },
      "issueCertificate(bytes32,string)": {
        "details": "Issue a new certificate",
        "params": {
          "certHash": "SHA-256 hash of the certificate PDF",
          "ipfsCID": "IPFS Content Identifier where the certificate is stored"
        }
      },
      "revokeCertificate(bytes32)": {
        "details": "Revoke a certificate (only by original issuer)",
        "params": {
          "certHash": "SHA-256 hash of the certificate to revoke"
        }
      },
      "verifyCertificate(bytes32)": {
        "details": "Verify a certificate's validity and get its details",
        "params": {
          "certHash": "SHA-256 hash of the certificate to verify"
        },
        "returns": {
          "certIssuer": "Address of the certificate issuer",
          "issueTimestamp": "Timestamp when the certificate was issued",
          "storageCID": "IPFS CID of the certificate file",
          "validity": "Whether the certificate is valid"
        }
      },
      "wasEverIssued(bytes32)": {
        "details": "Check if a certificate was ever issued (even if now revoked)",
        "params": {
          "certHash": "SHA-256 hash of the certificate"
        },
        "returns": {
          "_0": "bool True if certificate was ever issued"
        }
      }
    },
    "title": "CertificateVerification",
    "version": 1
  },
  "userdoc": {
    "kind": "user",
    "methods": {},
    "notice": "Fixed: No naming conflicts between functions and identifiers",
    "version": 1
  }
}